:100000000C9464010C948C010C948C010C948C0164
:100010000C948C010C94801F0C948C010C94591F2F
:100020000C948C010C948C010C948C010C948C011C
:100030000C948C010C948C010C948C010C948C010C
:100040000C94B71E0C948C010C94271F0C94011F68
:100050000C948C010C948C010C948C010C948C01EC
:100060000C948C010C948C0108000000BE92244971
:10007000123EABAAAA2ABECDCCCC4C3E00000080DA
:10008000BEABAAAAAA3E00000000BF000000803F4D
:100090000000000000084178D3BB4387D1133D190D
:1000A0000E3CC3BD4282AD2B3E68EC8276BED98F3A
:1000B000E1A93E4C80EFFFBE01C4FF7F3F0000007E
:1000C0000000202020202020202000FFFEFCF9F549
:1000D000EFE9E2D9D0C6BBB0A4988B7F73665A4EC5
:1000E00043382E251C150F09050275534458003A54
:1000F00020004261636B6C6967687400495120504D
:1001000068617365005265662066726571005041D2
:100110002042696173206D6178005041204269611D
:1001200073206D696E005458204472697665004EE4
:100130006F697365204761746500564F58005072AF
:10014000616374696365004B6579657220537761FB
:1001500070004B65796572204D6F6465004B657961
:1001600065722053706565640053656D6920515355
:100170004B00532D6D65746572004154543200413B
:100180005454004E520041474300524954005646D1
:100190004F204D6F64650054756E65205261746523
:1001A0000042616E640046696C74657220425700BB
:1001B0004D6F646500566F6C756D650043686563CF
:1001C0006B205054542F6B65790052657365742011
:1001D00073657474696E67732E2E004245525F69B1
:1001E00032630056616463310056616463300056C7
:1001F000616463320056617663630056332E3300C8
:1002000056352E3000312E3032780020520008044E
:100210000A050A0408000000000000000000101099
:1002200010101010101010101414141414141010B6
:100230001515151515150C121E12120000001C12B2
:100240001C121C00000000000000000000006442BE
:100250006D2000506F7765722D6F666620373320F2
:100260003A2D2900524954200000000000240027A4
:10027000002A0000000000250028002B00000000DC
:1002800000230026002900040404040404040402DA
:100290000202020202030303030303010204081023
:1002A00020408001020408102001020408102000F0
:1002B0000000080002010000030407000000000025
:1002C00000000000CB1FC52E11241FBECFEFD8E0C9
:1002D000DEBFCDBF13E0A0E0B1E0E8ECFCE602C079
:1002E00005900D92A037B107D9F726E0A0E7B3E05B
:1002F00001C01D92A734B207E1F711E0C3E6D1E0D7
:1003000004C02197FE010E94AE2FC236D107C9F763
:100310000E9416200C9457360C94000087FF76C07C
:100320003C983D9800000000000000003D9A00004D
:1003300000000000000086FF6BC03C983D98000064
:100340000000000000003D9A0000000000000000D6
:1003500085FF60C03C983D98000000000000000050
:100360003D9A000000000000000084FF55C03C984A
:100370003D9800000000000000003D9A00000000D1
:100380000000000083FF4AC03C983D980000000038
:10039000000000003D9A000000000000000082FF05
:1003A0003FC03C983D9800000000000000003D9ACE
:1003B000000000000000000081FF34C03C983D9820
:1003C00000000000000000003D9A00000000000056
:1003D000000080FF29C03C983D980000000000000C
:1003E00000003D9A00000000000000003C98000062
:1003F0000000000000003D98000000000000000028
:100400003D9A000000000000000008953C9A89CF4A
:100410003C9A94CF3C9A9FCF3C9AAACF3C9AB5CFB6
:100420003C9AC0CF3C9ACBCF3C9AD6CF2F923F92EA
:100430004F925F926F927F928F929F92AF92BF92F4
:10044000CF92DF92EF92FF920F931F93CF93DF93A0
:1004500000D000D0CDB7DEB7209130063091310604
:10046000409132065091330629833A834B835C8353
:1004700020912D06C0903C06D0903D06E0903E06AF
:10048000F0903F0630E0DC010E94CB2F4B015C0175
:10049000BB0C8808982C54019B01AC01682D782D69
:1004A000882D982D07E10E94BC3056016701E12C90
:1004B000F12C00E010E00E94E72F49015A01498029
:1004C0005A806B807C80480C591C6A1C7B1C809174
:1004D0002E0690912F06860D971D8093380680E199
:1004E00080933906852D992780933A0640923B06E2
:1004F0000F900F900F900F90DF91CF911F910F9160
:10050000FF90EF90DF90CF90BF90AF909F908F9033
:100510007F906F905F904F903F902F900895833021
:1005200081F028F4813099F08230A9F00895873065
:10053000A9F08830C9F08430B1F4809180008F7DBB
:1005400003C0809180008F7780938000089584B5E8
:100550008F7784BD089584B58F7DFBCF8091B000E7
:100560008F778093B00008958091B0008F7DF9CF90
:10057000CF93DF93282F30E0F901E155FD4F8491AF
:10058000F901E556FD4FD491F901E957FD4FC491AA
:10059000CC23A1F081110E948F02EC2FF0E0EE0F2E
:1005A000FF1FE358FD4FA591B491EC91ED2381E03D
:1005B00090E009F480E0DF91CF91089580E090E031
:1005C000FACF1F93CF93DF93282F30E0F901E15545
:1005D000FD4F8491F901E556FD4FD491F901E9579A
:1005E000FD4FC491CC23A9F0162F81110E948F02D8
:1005F000EC2FF0E0EE0FFF1FED58FD4FA591B491E9
:100600008FB7F894EC91111108C0D095DE23DC93DC
:100610008FBFDF91CF911F910895DE2BF8CFCF933D
:10062000DF9390E0FC01E556FD4F249189579D4FE3
:10063000FC0184918823C9F090E0880F991FFC0188
:10064000E759FD4FA591B491FC01ED58FD4FC591BF
:10065000D49161110DC09FB7F8948C91209582239D
:100660008C938881282328839FBFDF91CF910895A1
:10067000623051F49FB7F8943C91822F8095832388
:100680008C93E8812E2BEFCF8FB7F894EC912E2B23
:100690002C938FBFEACF8E3008F08E508770806425
:1006A00080937C0080917A00806480937A008091AE
:1006B0007A0086FDFCCF80917800909179000895B2
:1006C0003FB7F8948091870590918805A09189059E
:1006D000B0918A0526B5A89B05C02F3F19F0019659
:1006E000A11DB11D3FBFBA2FA92F982F8827BC018C
:1006F000CD01620F711D811D911D42E0660F771FB4
:10070000881F991F4A95D1F708958F929F92AF92B3
:10071000BF92CF92DF92EF92FF924B015C010E9459
:1007200060036B017C010E9460036C197D098E09D6
:100730009F09683E734081059105A8F321E0821A64
:100740009108A108B10888EEC80E83E0D81EE11C0C
:10075000F11C81149104A104B10429F7FF90EF90DA
:10076000DF90CF90BF90AF909F908F9008952FB75C
:10077000F89460918305709184058091850590912E
:1007800086052FBF0895DC01ED91FC910190F08169
:10079000E02D0994AF92BF92CF92DF92EF92FF9239
:1007A0000F931F93CF93DF936C017B018B01040F99
:1007B000151FEB015E01AE18BF08C017D10759F035
:1007C0006991D601ED91FC910190F081E02DC60177
:1007D0000995892B79F7C501DF91CF911F910F9171
:1007E000FF90EF90DF90CF90BF90AF900895FC0105
:1007F000538D448D252F30E0842F90E0821B930B86
:10080000541710F0CF96089501970895FC01918D2B
:10081000828D981761F0A28DAE0FBF2FB11D5D962E
:100820008C91928D9F5F9F73928F90E008958FEFD0
:100830009FEF0895FC01918D828D981731F0828D84
:10084000E80FF11D858D90E008958FEF9FEF0895DB
:10085000FC01918D228D892F90E0805C9F4F821B3F
:1008600091098F73992708958CE895E00E942804D8
:1008700021E0892B09F420E0822F0895FC01A48D4A
:10088000A80FB92FB11DA35ABF4F2C91848D90E0B2
:1008900001968F739927848FA689B7892C93A08995
:1008A000B1898C91837080648C93938D848D98131F
:1008B00006C00288F389E02D80818F7D80830895B2
:1008C000EF92FF920F931F93CF93DF93EC0181E0A0
:1008D000888F9B8D8C8D98131AC0E889F989808147
:1008E00085FF15C09FB7F894EE89FF896083E8897A
:1008F000F98980818370806480839FBF81E090E06C
:10090000DF91CF911F910F91FF90EF900895F62EF8
:100910000B8D10E00F5F1F4F0F731127E02E8C8D92
:100920008E110CC00FB607FCFACFE889F9898081D7
:1009300085FFF5CFCE010E943E04F1CFEB8DEC0F89
:10094000FD2FF11DE35AFF4FF0829FB7F8940B8FF4
:10095000EA89FB8980818062CFCFCF93DF93EC015E
:10096000888D8823B9F0AA89BB89E889F9898C9197
:1009700085FD03C0808186FD0DC00FB607FCF7CF53
:100980008C9185FFF2CF808185FFEDCFCE010E9453
:100990003E04E9CFDF91CF9108950F931F9380918B
:1009A000810581111BC0809147058823B9F08CE82F
:1009B00095E00E94AD040E94B70300913F0510919D
:1009C000400520914105309142056017710782076B
:1009D000930710F4A895EFCF429A3A9A8091C100FC
:1009E000877E8093C100F8941F910F9108953C9ADF
:1009F0003D9800000000000000003C9887B18F7C0B
:100A000087B93C9A08953D9A00000000000000005C
:100A10003C980895CF93DF930E94030580EC0E94D9
:100A20008E018EE10E948E01C9E2D6E08F850E9480
:100A30008E0188890E948E0189890E948E018A898F
:100A40000E948E01DF91CF910C94F704FF920F93D7
:100A50001F93CF93DF93C82FF62E072F142F0E94DA
:100A6000030580EC0E948E018C2F0E948E01CF2DF9
:100A7000D02F115020F089910E948E01FACFDF9182
:100A8000CF911F910F91FF900C94F704CF93DF93B8
:100A90001F92CDB7DEB7698341E0BE016F5F7F4F24
:100AA0000E9426050F90DF91CF9108952F923F92DB
:100AB0004F925F926F927F928F929F92AF92BF926E
:100AC000CF92DF92EF92FF920F931F93CF93DF931A
:100AD000CDB7DEB764970FB6F894DEBF0FBECDBFBB
:100AE000898B48015901FB8AEA8ACC8ACB01BA0179
:100AF000A90198010E946D2F2901190124303105A7
:100B000009F497C09B01AC0160E070E080E090E0E8
:100B100000E10E94BC30F9017501640100E010E0C1
:100B200098018986DA86AB86FC860D871E872F871B
:100B3000388B54016701E12CF12C00E010E09F019B
:100B40000E941830A32FF42FE52F422F5A2F6F2F1A
:100B50007E2FC12CD12C7601E394CB01BA0127E082
:100B6000660F771F881F991F2A95D1F7A701960155
:100B70000E946D2F42019694982C88249794879414
:100B8000B12CA12C02E0901AA108B108280D391D42
:100B90004A1D5B1DBC89A0E1BA9FF0011124842E7F
:100BA0008E2AE4E02E16310409F04CC0ECE01982E4
:100BB000CA828E2A8B823C832D8394E0CC0CDD1C70
:100BC000EE1CFF1C9A95D1F7E82AEE827F83688796
:100BD00048E0BE016F5F7F4F8989880F880F880FBB
:100BE000865D0E942605612F6295660F660F607C08
:100BF000C988C7FE29C060688C2D885E0E944605A2
:100C000064960FB6F894DEBF0FBECDBFDF91CF91D3
:100C10001F910F91FF90EF90DF90CF90BF90AF901A
:100C20009F908F907F906F905F904F903F902F900C
:100C3000089540E050E0BA0111E0C12CD12C7601BA
:100C4000C3948BCFE0E0B3CF6F608989805F0E944F
:100C50004605EA88FB88E49CA001E59C500DF49CC5
:100C6000500D112421E01227212F30E0429FC001B6
:100C7000439F900D529F900D11246AE570E00E94F1
:100C8000452F89898B55BACF2F923F924F925F9211
:100C90006F927F928F929F92AF92BF92CF92DF928C
:100CA000EF92FF920F931F93CF93DF93CDB7DEB7F1
:100CB00060970FB6F894DEBF0FBECDBF4B015C014D
:100CC00049875A8329833B8321E0821623EA9206CF
:100CD00021EEA20621E1B206DCF023E030E0CA01F9
:100CE000B9010E94452F69877A8389819B81B90167
:100CF0000E94452F69837B83C501B40123E030E066
:100D000040E050E00E948F2F49015A01188611C01F
:100D100060E2861661EA960667E0A606B104B4F7BB
:100D200047E0880C991CAA1CBB1C4A95D1F777E0B8
:100D3000788780E8881683EC980689ECA80681E01D
:100D4000B806CCF460913C0670913D0680913E0659
:100D500090913F06A0EE8A16A7E69A06A5E3AA069A
:100D6000B1040CF445C124E0660F771F881F991F5A
:100D70002A95D1F749C160913C0670913D0680915A
:100D80003E0690913F0635E0660F771F881F991F3A
:100D90003A95D1F7A50194010E946D2F1901B1E098
:100DA0008B16BBE39B06B8E5AB06B8E0BB060CF0C0
:100DB00031C120FE03C02FEF221A320AD101A50152
:100DC000940128583341410951090E94D22F6B01E7
:100DD0007C0120913C0630913D0640913E065091A9
:100DE0003F0640903C0650903D0660903E06709055
:100DF0003F064C825D826E827F820E946D2F2901A8
:100E00003A019101A0E1B7E20E94BC2F6C0D7D1D5B
:100E10008E1D9F1D2C813D814E815F810E946D2F13
:100E2000421653066406750619F022E0220E311CA4
:100E3000D101A50194010E94D22F2B013C01009108
:100E40003C0610913D0620913E0630913F06C12C94
:100E5000F12CE12CBC01A2018EEF0E945605C88442
:100E6000E984FA8095018401B301A20180E00E9427
:100E70005605C884E980FB809501B301A20181E099
:100E80000E945605C884F12CE12C9501B301A20102
:100E900082E00E9456056985062E000C770B898139
:100EA000681B710987FD73957D836C83C301B20153
:100EB000A50194010E946D2FAC81BD81A29FC0014C
:100EC000A39F900DB29F900D11246AE570E00E94DF
:100ED000592F80914006909141068617970741F05F
:100EE000709341066093400660EA81EB0E944605DC
:100EF0006CEF83E00E9446058092290690922A06B4
:100F0000A0922B06B0922C0620922D0620913C0632
:100F100030913D0640913E0650913F06C301B2011B
:100F20000E946D2F2450310941095E4F3695322FB2
:100F300022273795279530932F0620932E06209150
:100F40003C0630913D0640913E0650913F06C090D0
:100F50003C06D0903D06E0903E06F0903F06C3016F
:100F6000B2010E946D2F2B013C01812C912C540168
:100F700069875A868B877C868D869E86AF86B88ADF
:100F80009B01AC0160E070E080E090E007E10E942E
:100F9000BC302A83398356016701E12CF12C00E033
:100FA00010E02A8139810E941830C901DA0180934A
:100FB000300690933106A0933206B09333066096C4
:100FC0000FB6F894DEBF0FBECDBFDF91CF911F915A
:100FD0000F91FF90EF90DF90CF90BF90AF909F90D8
:100FE0008F907F906F905F904F903F902F900895DB
:100FF00020913C0630913D0640913E0650913F06BF
:10100000A7E0B0E00E94D22FA50194010E946D2FAD
:101010001901CFCE94E0292E312CCBCECF936FEF98
:1010200083E00E94460560E188E10E94460560E099
:1010300089E10E944605C0E160E88C2F0E944605C8
:10104000CF5FC831C9F760E08BEB0E94460560E0D6
:1010500085E90E94460562ED87EBCF910C94460529
:101060003D98000000000000000021E63AEE3599AE
:1010700003C021503109D9F796B190713D9A000013
:10108000000000000000911101C080E008958091EF
:101090006901882381F05B9A8091C1008861809307
:1010A000C10080918105811104C0809147058111A3
:1010B0004298789408955B98EFCFCF93C82F0E9401
:1010C000CD048BB1807F80618C2B8BB98BE090E05D
:1010D0000197F1F75C980E9447088BEE90E001972A
:1010E000F1F7CF910895CF93C82F82958F700E940A
:1010F0005D088C2F8F70CF910C945D088CE00C9460
:1011000073080F931F93CF93DF9340913E05C091D7
:101110006801C41BDD0BEEE3F4E030E020E00FEFEC
:1011200010E0C901B8010E94452F640F61932C0F94
:101130003D1F85E0EE33F807A1F7DF91CF911F91B6
:101140000F91089580917A00806480937A00809155
:10115000A30380938A008091780090917900209178
:101160006A0192502450330B02C0880F991F2A95B0
:10117000E2F7803E2FEF92074CF0803E910514F08D
:101180008FED90E080968093A303089580E0FBCFDD
:10119000EAE7F0E080818064808380913D05809360
:1011A0008A000E940A058091780090917900209130
:1011B0006A01925002C0880F991F2A95E2F70C9499
:1011C00016020895CF93C82F809170008D7F809371
:1011D00070008BE490E00197F1F7F894C0937C05E0
:1011E000CC2309F455C080910301909104019093A0
:1011F00018048093170410927705109278051092C6
:10120000790510927A05809194018230C1F180F1C4
:101210008330D9F18430B1F17894CC2309F482C0C1
:101220008091610580937C0010924605CC2309F4DF
:10123000C4C08091190460E0882309F477C088E075
:101240000E94E1028FEC0E94730860E582E496E060
:101250000E94C3036FEF83E00E94460580E4809301
:10126000B30080917000826080937000CF910895E8
:101270008CE495E19093450580934405CDCF8BE1B7
:1012800093E1F8CF82EA98E0F5CF88EC98E0F2CFCE
:1012900080919401823091F5809177059091780545
:1012A000A0917905B0917A05892B8A2B8B2B31F58A
:1012B0000E94B703AB01BC0180917105909172054A
:1012C000A0917305B091740523E0880F991FAA1FA0
:1012D000BB1F2A95D1F7840F951FA61FB71F8093B8
:1012E000770590937805A0937905B0937A0580915E
:1012F0001A04811114C085EC9AE0BCCF80911704C8
:101300009091180490930401809303011092770543
:10131000109278051092790510927A05ECCF81EE43
:1013200098E0A8CF81E0809364057ECF88E00E949A
:10133000E1028FEC0E94730864E582E496E00E946B
:10134000C30380919401823079F580915B0590917F
:101350005C05A0915D05B0915E059195819591091F
:101360000E9416020E940A056BEF83E00E94460568
:1013700080E88093880080911604811109C08091D3
:101380009401823029F0809180008F7780938000D3
:10139000809180008062809380008091470588233F
:1013A00009F45CCF3A985ACF80916805909169050D
:1013B000892BD1F290E080E0D3CF80918A008823FE
:1013C00099F0EBECF0E02BEE30E0A491B0E0A25C01
:1013D000BB4F8C9180938A00C9010197F1F7319638
:1013E00080E0EA3EF80789F780918000806880936A
:1013F0008000809180008F7D8093800060E08AE093
:101400000E94E10210928A006CEF83E00E94460580
:101410008091770590917805A0917905B0917A0532
:10142000892B8A2B8B2B21F080911A04811109C002
:101430008091620561E0823009F460E088E00E94FA
:10144000E10280916805909169050E9416020E9450
:101450000A058FEC0E9473088091810562E5811175
:1014600066E582E496E00E94C303809181058111C4
:1014700004C08091470581113A9A84E0F0CE8091B2
:1014800090018F5B80680E9473088EE00C94730853
:1014900090919001980F90939001909190019111EB
:1014A00003C098E09093900190919001993018F0CA
:1014B00091E09093900190919001943021F090915F
:1014C0009001923029F490919001890F80939001BE
:1014D0000C943F0A90917E00E1E0F0E0082E01C0FC
:1014E000EE0F0A94EAF79E2B90937E0010927A00FA
:1014F00010927B0010927C0090917C00892B80934D
:101500007C0080917C0090E4611190EC892B8093A9
:101510007C0068EB7BE787E190E00E946D2F80E024
:10152000369527952115310511F08F5FF9CF9091F0
:101530007A008770892B80937A0080917A00806886
:1015400080937A00089580915F0580937C00EAE79C
:10155000F0E08081806480838091780090917900B0
:1015600026E231E130934505209344052091AE03F6
:101570003091AF033093AD032093AC038F5F914064
:101580009093AF038093AE0308954F925F926F9252
:101590007F928F929F92AF92BF92CF92DF92EF9203
:1015A000FF920F931F93CF93DF93809160058093F9
:1015B0007C0080917A00806480937A00409178006A
:1015C000509179004F5F51408091B4039091B503E1
:1015D000840F951F97FD01969C0135952795509393
:1015E000B5034093B40380916405882309F4BAC21B
:1015F00010920104109200041092B1031092B003F3
:1016000080910004909101049093B3038093B203FE
:1016100080E88093880083EA9AE090934505809360
:101620004405809114049091150440911204509146
:101630001304480F591FCA01880F991F840F951F63
:10164000820F931F4091100450911104840F951F35
:1016500095958795309315042093140460900E049B
:1016600070900F0420910C0430910D04260D371D4D
:101670003901660C771C620E731E680E791E20916C
:101680000A0430910B04620E731E90930F04809332
:101690000E04609108047091090480916405811121
:1016A0004CC280910604909107042091040430916B
:1016B0000504DC01A21BB30B9D0140910204509173
:1016C0000304FD01E41BF50BAF01509301044093AB
:1016D00000044091FF03542F4F5F4093FF035111CB
:1016E00007C0789480910604909107044091FF030D
:1016F0003093030420930204909305048093040420
:1017000080916C0102C0759567958A95E2F7C0904B
:10171000E703D090E803A090FB03B090FC03E090B7
:10172000EB03F090EC03A091F703B091F803F701FD
:10173000EA1BFB0B0091EF031091F003C091F30340
:10174000D091F40398012C1B3D0B8090E303909003
:10175000E403861A970AC6018A199B09880F991F04
:10176000880F991F880E991E97FE03C05FE3850EB0
:10177000911C082C892C000C881C9908000C881CD2
:10178000991CCF01820F931F97FD0796959587951A
:101790009595879595958795880E991ECF01880F09
:1017A000991F880F991F8E0F9F1F821B930B97FF06
:1017B00002C081589F4F880F892F881F990B880D71
:1017C000991D37FF02C02F5F3F4F35952795280F92
:1017D000391F8091E5039091E6039093E403809391
:1017E000E303D092E603C092E5038091E903909170
:1017F000EA039093E8038093E703F092EA03E09210
:10180000E9038091ED039091EE039093EC038093B4
:10181000EB031093EE030093ED038091F10390919D
:10182000F2039093F0038093EF03D093F203C093FD
:10183000F1038091F5039091F6039093F403809364
:10184000F303B093F603A093F5038091F90390910D
:10185000FA039093F8038093F703B092FA03A092EF
:10186000F9038091FD039091FE039093FC03809314
:10187000FB037093FE036093FD0380916C0102C033
:10188000759467948A95E2F770924A0560924905CB
:101890007093E2036093E1038091D3039091D403AA
:1018A0006091D5037091D6037093D4036093D303F2
:1018B0006091D7037091D8037093D6036093D503DA
:1018C0006091D9037091DA037093D8036093D703C2
:1018D0006091DB037091DC037093DA036093D903AA
:1018E0006091DD037091DE037093DC036093DB0392
:1018F0006091DF037091E0037093DE036093DD037A
:101900007092E0036092DF03919581959109821BAB
:10191000930B2091D2033FEF320F3093D203C0904C
:10192000CE03D090CF03E090D003F090D1032111EB
:1019300059C0C0925305D0925405E0925505F092DB
:1019400056051092CE031092CF031092D00310923E
:10195000D10320919401243009F45CC020919401BA
:10196000233009F4C6C120912501213009F4ACC00F
:1019700020917D012E300CF41DC120917D012D5050
:10198000FC0102C0EE0FFF1F2A95E2F78091670568
:10199000811123C18091660581113FC1CF01E115FD
:1019A000FE4F14F480E09EEF8115E2E09E0714F0F4
:1019B0008FEF91E090930704809306044150409389
:1019C000FF03DF91CF911F910F91FF90EF90DF9078
:1019D000CF90BF90AF909F908F907F906F905F90CF
:1019E0004F9008958C0197FD9EC1012E000C220B93
:1019F000330B0C0D1D1D2E1D3F1D0093CE031093A8
:101A0000CF032093D0033093D1032091940124304D
:101A100009F0A4CF8091490590914A05209149058C
:101A200030914A05181619061CF031952195310997
:101A30008091E1039091E203181619060CF030C270
:101A40008091E1039091E203821793070CF470C137
:101A50008091E1039091E203181619060CF028C258
:101A60008091E1039091E2032091490530914A056C
:101A7000121613060CF024C22091490530914A0534
:101A800037FF02C02D5F3F4F359527953595279538
:101A9000820F931F6091CC037091CD039C01261B94
:101AA000370B37FF02C02F5F3F4F35952795260F25
:101AB000371F3093CD032093CC03821B930B2091CF
:101AC0002501213009F054CF20910101309102010C
:101AD0002115A4E03A0774F0B901672F770F770B4F
:101AE00065956595FC01E69FC001E79F900DF69F07
:101AF000900D1124692F65956595792F770F770BD8
:101B000077FDCAC1E1E0F0E0DF01A61BB70BEFEF04
:101B1000FFE7E21BF30BAE17BF0734F42A0F3B1F9E
:101B20003093020120930101121613060CF0ADC18F
:101B300050917D0120E130E041C0109207041092E5
:101B400006041092050410920404109203041092EB
:101B500002041092640550E040E030E020E090E0A4
:101B600080E0B3CD4091B2035091B3038091B003B4
:101B70009091B103840F951F9093B1038093B003AC
:101B80006091000470910104460F571F5093B303F6
:101B90004093B203959587959595879595958795EB
:101BA00095958795959587958F3791050CF49DC1EF
:101BB0008FEF2FCD50917D012DE030E0251B3109B5
:101BC00057FD3395FC0102C0F595E7952A95E2F79C
:101BD00080916705882309F4DDCEC091B603D091CA
:101BE000B70320916705CF018C1B9D0B2150330B50
:101BF00061E070E002C0660F771F2A95E2F70E944D
:101C0000592FFB01EC0FFD1FF093B703E093B603D0
:101C100080916605882309F4C1CE80916605E09025
:101C2000C203F090C303C090C603D090C7038430B2
:101C300008F097C08091C8039091C903F093C9033D
:101C4000E093C8039F01281B390BC9012EE1289F8F
:101C5000D001299FB00D112429E12E9FC0012F9F93
:101C6000900D1124A80FB91FB595A795B595A79507
:101C7000B595A795B595A795B595A7958091660556
:101C8000823009F435C2833009F41CC2813009F472
:101C9000EBC12091BE033091BF0380916605C091D6
:101CA000BC03D091BD03823009F4B7C1833009F47D
:101CB0009CC1813009F465C1E091B803F091B9038A
:101CC000D093BB03C093BA03F093BD03E093BC036E
:101CD000F092C103E092C0033093C3032093C20388
:101CE000D092C503C092C403B093C703A093C603A8
:101CF00055CE2091490530914A05280F391F609132
:101D0000CA037091CB03269FC001279F900D369F79
:101D1000900D11242091490530914A053093CB0351
:101D20002093CA0320CE00271127081B190B5DCE74
:101D30008091490590914A05181619060CF0CDC0FE
:101D40008091490590914A052091E1033091E20389
:101D5000121613060CF0BCC02091E1033091E2038F
:101D60008FCE80916605853009F424C208F4CCC07A
:101D7000863009F4C2C02091C0033091C103A3ECA6
:101D8000BFEF873009F0F0C10E94B42F4B015C0116
:101D90002EE630E0D7010E94CB2F860E971EA81E9C
:101DA000B91ED6E0B594A79497948794DA95D1F7A5
:101DB0008C0C9D1C9092BF038092BE03809166059F
:101DC000A090BC03B090BD03853009F4B0C108F405
:101DD000ABC0863009F4CDC1873009F0A3C1C7017B
:101DE000880F991FB401681B790B0091C0031091F3
:101DF000C103060F171F159507951595079515959E
:101E0000079515950795159507952091BA0330917B
:101E1000BB03A2ECBFEF0E94B42F2B013C0120E7D3
:101E200030E0D5010E94CB2F460E571E681E791E4A
:101E300096E075946794579447949A95D1F7400E1D
:101E4000511E5092B9034092B803B092BB03A092C6
:101E5000BA035092BD034092BC03F092C103E092DA
:101E6000C0039092C3038092C203D092C503C09274
:101E7000C403F093C703E093C603F201F595E79519
:101E8000F595E795F595E79589CD21E030E030931C
:101E90000201209301014CCE71956195710932CEFA
:101EA0008091E1039091E203919581959109CCCDC8
:101EB0008091E1039091E203919581959109D4CDB0
:101EC0002091490530914A05319521953109D8CDA8
:101ED0002091E1033091E203F7CF80914905909181
:101EE0004A059195819591092FCF80384FEF94073E
:101EF00014F480E89FEF80588CCB2091C003309180
:101F0000C103A2ECBFEF40CF843009F02DC1209176
:101F1000C0033091C103A7ECBFEF0E94B42F4B0167
:101F20005C0122E730E036CF843009F0FBC020911D
:101F3000BA033091BB03ACECBFEF0E94B42F2B016E
:101F40003C012FE530E0D5010E94CB2F460E571EF5
:101F5000681E791EB6E07594679457944794BA95B5
:101F6000D1F7C701880F991FD401A81BB90BCD0168
:101F70006091C0037091C103860F971F480E591ED0
:101F800060CFC701880F991F820F931FE091C00394
:101F9000F091C1038E0F9F1F95958795E091BA032D
:101FA000F091BB035BE05E9FB0015F9F700D112459
:101FB000FE01EE0FFF1FEE0FFF1FEE0FFF1FEC0FD6
:101FC000FD1FEE0FFF1F6E0F7F1F759567957595AF
:101FD00067957595679575956795FC01E61BF70BF9
:101FE000F093B903E093B8036BCEC701880F991F34
:101FF000820F931FE091C003F091C1038E0F9F1FCA
:1020000095958795959587956091BA037091BB03D7
:10201000660F771F660F771FD8CFC701880F991FEC
:10202000820F931FE091C003F091C1038E0F9F1F99
:1020300095958795959587950091BA031091BB0367
:10204000000F111F0C0F1D1F000F111F000F111F7C
:102050001595079515950795159507951595079568
:10206000FC01E01BF10BBCCF9601220F331F2A0F9E
:102070003B1F8091C4039091C503280F391F3595EC
:1020800027956091C0037091C1035BE0569FC0012A
:10209000579F900D11245DE05E9DB0015F9D700D16
:1020A0001124860F971F95958795959587959595FA
:1020B000879595958795281B390B3093BF032093FF
:1020C000BE03EBCD9601220F331F2A0F3B1F8091D9
:1020D000C4039091C503280F391F3595279580912A
:1020E000C0039091C103880F991F880F991FDBCF00
:1020F0009601220F331F2A0F3B1F8091C40390913A
:10210000C503280F391F359527958091C0039091FD
:10211000C103880F991F880F991F8E0D9F1D880F6F
:10212000991FC1CF4090B8035090B9038ECEC7011C
:10213000880F991FB401681B790B0091C00310919F
:10214000C103060F171F1595079515950795209143
:10215000BA033091BB03A5ECBFEF0E94B42F2B0153
:102160003C012AE630E05DCE8090BE039090BF0334
:1021700025CEC701880F991FB401681B790B009108
:10218000C0031091C103060F171F159507951595EC
:10219000079515950795159507952091BA033091E8
:1021A000BB03A2ECBFEF0E94B42F2B013C0121E73F
:1021B00030E037CE2091C0033091C103A4ECBFEFD3
:1021C0000E94B42F4B015C0121E730E0E3CD809108
:1021D0005F0580937C00EAE7F0E080818064808383
:1021E00020917800309179002F5F31408EEB91E1A2
:1021F00090934505809344058091AA039091AB0389
:102200009093A9038093A8038091A6039091A703BC
:102210004091AE035091AF03480F591FCA01880F78
:10222000991F840F951F820F931F4091AC0350910B
:10223000AD03840F951F959587959093AB0380937D
:10224000AA033093A7032093A60308958091600505
:1022500080937C0080917A00806480937A00209142
:102260007800309179002F5F31408091B4039091D4
:10227000B503820F931F97FD01969595879530932F
:10228000B5032093B40320916405222331F1109209
:102290000104109200041092B1031092B003209137
:1022A0000004309101043093B3032093B20320E87B
:1022B0002093880027EE30E13093450520934405B4
:1022C00020911204309113043093110420931004D0
:1022D000909313048093120408954091B203509197
:1022E000B3032091B0033091B103240F351F309315
:1022F000B1032093B0036091000470910104460F74
:10230000571F5093B3034093B203359527953595E6
:1023100027953595279535952795359527952F3709
:10232000310514F02FEFC4CF20384FEF340714F4E9
:1023300020E83FEF2058BCCF80915F0580937C0060
:10234000EAE7F0E08081806480838091780090915A
:10235000790025EA32E13093450520934405209128
:10236000AE033091AF033093AD032093AC038F5F86
:1023700091409093AF038093AE03089580916005E0
:1023800080937C0080917A00806480937A004091F1
:102390007800509179004F5F51408091B403909143
:1023A000B503840F951F97FD01969C0135952795E0
:1023B0005093B5034093B40380916405882309F4D6
:1023C00043C010920104109200041092B1031092C5
:1023D000B00380910004909101049093B303809323
:1023E000B20380E8809388008CE991E190934505E1
:1023F0008093440580910C0490910D0490930B04FC
:1024000080930A0480911404909115044091120461
:1024100050911304480F591FCA01880F991F840F48
:10242000951F820F931F4091100450911104840F47
:10243000951F9595879590930D0480930C04309388
:1024400015042093140408954091B2035091B303EE
:102450008091B0039091B103840F951F9093B103C5
:102460008093B0036091000470910104460F571FE0
:102470005093B3034093B2039595879595958795AF
:102480009595879595958795959587958F3791051E
:1024900014F08FEFA7CF80384FEF940714F480E843
:1024A0009FEF80589FCF80915F0580937C00EAE783
:1024B000F0E0808180648083209178003091790001
:1024C0002F5F314085EC9AE0909345058093440559
:1024D0008091A6039091A7034091AE035091AF0362
:1024E000480F591FCA01880F991F840F951F820F2B
:1024F000931F4091AC035091AD03840F951F9595A8
:1025000087953093A7032093A6032091A4033091CD
:10251000A5034091AA035091AB03420F531F9A01A8
:10252000220F331F240F351F280F391F4091A80396
:102530005091A903240F351F3093090420930804F8
:102540009093A5038093A4030895809160058093E0
:102550007C0080917A00806480937A0020917800DA
:10256000309179002F5F31408091B4039091B50391
:10257000820F931F97FD0196959587953093B5032C
:102580002093B40320916405222331F110920104B9
:10259000109200041092B1031092B0032091000435
:1025A000309101043093B3032093B20320E82093C9
:1025B000880023E532E130934505209344052091BE
:1025C000120430911304309311042093100490935B
:1025D00013048093120408954091B2035091B30301
:1025E0002091B0033091B103240F351F3093B10314
:1025F0002093B0036091000470910104460F571FAF
:102600005093B3034093B20335952795359527959D
:102610003595279535952795359527952F3731058C
:1026200014F02FEFC4CF20384FEF340714F420E814
:102630003FEF2058BCCF80918A0020913D05821742
:10264000A0F48FE190E04BEE50E00197FC01E553E0
:10265000FF4FE491F0E0E25CFB4F308130938A0061
:10266000FA013197F1F7009781F720938A00E09102
:102670007C0184E0E89FF0011124EB56FE4F20819D
:10268000318142815381AEE1B3E00E94D22F20EC30
:1026900032E140E050E00E946D2F809100013091C6
:1026A000A2032802C0011124EFE7F0E0BF010E945D
:1026B000592F360F3093A2038091A203309100016D
:1026C0002802C0011124BF010E94592F361B3093EC
:1026D00000018091A20340917D01082E000C990B0E
:1026E00020E130E0241B310947FD339502C0959568
:1026F00087952A95E2F780588093880008950F9374
:102700001F93CF93DF93E0E8F3E02EE933E04281BB
:102710005381419351932E173F07C9F79C01220F14
:10272000331F40917E0350917F03240F351F440FC8
:10273000551F841B950BE3E0F0E0BF010E94592F69
:1027400070937F0360937E0380917C0390917D035F
:10275000880F991F820F931FBF010E94592F7093FA
:102760007D0360937C03261B370B30939F032093DC
:102770009E0380918E0390918F03FC01EE0FFF1F4B
:1027800040918C0350918D0360919003709191035F
:10279000461B570B20918403309185036091980369
:1027A00070919903261B370B220F331F220F331F03
:1027B0006091800370918103A0919C03B0919D036F
:1027C0006A1B7B0B260F371F220F331F6091880374
:1027D00070918903A0919403B09195036A1B7B0BC0
:1027E000C5E1C69FD001C79FB00D11242A0F3B1F22
:1027F000BA0114E0660F771F1A95E1F7260F371F0D
:1028000037FF02C0215C3F4F66E0359527956A95FA
:10281000E1F7240F351FE230F10544F4CF01F7FD55
:10282000019695958795919581959109B9012230E9
:10283000310594F075956795681779073CF1E2309A
:10284000F1050CF4DEC0CF01B3E095958795BA95FC
:10285000E1F7860F971F22C037FF02C06F5F7F4FDF
:1028600075956795719561957109681779073CF7BA
:10287000A90137FF02C0495F5F4FC3E055954795F7
:10288000CA95E1F751954195510906C0A901D3E0D8
:1028900055954795DA95E1F7840F951F40916B01A7
:1028A0004817190608F0BEC040917C054111B8C018
:1028B0004FEF40937C0540916A0102C0880F991F39
:1028C0004A95E2F78F3F910509F020F440916A01A3
:1028D000483011F48FEF90E040917C05442309F4D7
:1028E000AAC0825C9B4FDC018C918093A303E90119
:1028F00037FF04C0CC27DD27C21BD30B8F01F7FFA6
:1029000004C0002711270E1B1F0B0C171D070CF00E
:1029100094C045EE4003C001419F900D1124BE01BB
:102920000E94592F6A597F4F609FC001619F900D8F
:10293000709F900D1124BE010E94592F86E990E0EE
:10294000AC01461B570BBA01F7FF06C08CE291E0C1
:10295000DC01A61BB70BBD0137FF03C07195619564
:10296000710980917A0390917B039B01281B390B9D
:1029700070937B0360937A0337FF02C0285A3D4F60
:1029800080916605882309F474C0809166058330C0
:1029900009F472C08CE291E08217930714F58091DC
:1029A0006605882309F46BC080916605833009F4BD
:1029B00069C08CE291E0281B390B621B730B70938A
:1029C0007B0360937A038091660528E532E08823D3
:1029D00041F0809166052CE231E0833011F426E964
:1029E00030E080919401813009F04FC0C90123E0AB
:1029F000880F991F2A95E1F7DF91CF911F910F91D1
:102A00000895AF01F7FF02C0495F5F4FA3E05595FE
:102A10004795AA95E1F788279927841B950B19CF2D
:102A20004EEF47CF40917C05442309F444CF4091B9
:102A30007C0541503ECF80E058CF70E060E0309799
:102A400009F48ACF45EEBE014603C001479F900DB1
:102A50001124B8010E94592F6A597F4F6C9FC00101
:102A60006D9F900D7C9F900D1124B8010E94592FED
:102A70006BCF88E592E090CF86E990E08DCF88E536
:102A800092E099CF86E990E096CF48EF4203C001EB
:102A9000439F900D1124B0CFCF93DF93C091780066
:102AA000D091790080917A00806480937A000E94AE
:102AB0000A058091A30380938A0080917800909109
:102AC0007900C80FD91F80917A00806480937A00C2
:102AD0008091A0039091A1030E947F132091780020
:102AE00030917900C20FD31F20917A002064209387
:102AF0007A000E941602209178003091790090911E
:102B00007A00906490937A00CE01820F931F97FD14
:102B100003969595879595958795805E91409093BE
:102B2000A1038093A00380917C05813031F4109241
:102B30008A006FEF83E00E94460580917C058F3FFD
:102B400031F46BEF83E0DF91CF910C944605DF9178
:102B5000CF910895CF93C62F0E94CD048BB1807F73
:102B600080619C2F92959F70892B8BB96BB1607F90
:102B70006061CF706C2B3C9800005C986BB93C9AFC
:102B80003C9800005C983C9A0E9447088BEE90E0CD
:102B90000197F1F781E090E0CF9108950F931F9393
:102BA000CF93DF938C01D0E0C0E0F801EC0FFD1F64
:102BB0006491662341F082E496E00E94AA15892B75
:102BC00011F02196F2CFCE01DF91CF911F910F919D
:102BD000089582EC90E00C94CE150F931F93CF9341
:102BE000C62F8A01813009F042C080E80E94730834
:102BF0006C2F62956F70CF706A3031F461E382E4BC
:102C000096E00E94C30360E0605D82E496E00E946B
:102C1000C3036EE282E496E00E94C303CA3030F040
:102C2000CA5061E382E496E00E94C30360E36C0F44
:102C300082E496E00E94C30360E282E496E00E9490
:102C4000C303C8010E94CE150E94E9150E94E91530
:102C500080EC0E94730880917B058230A8F06EE3BF
:102C600082E496E0CF911F910F910C94C30380EC06
:102C70000E947308C8010E94CE158FEE90E0CF919C
:102C80001F910F910C94CE15CF911F910F91089524
:102C900080E80E9473088AEE90E00E94CE1561E001
:102CA00082E496E00E94C3030E94E9150C94E915A2
:102CB0008DE00E94B802892B51F480916C0591E05F
:102CC000811192E080917505892B809375058CE0C8
:102CD0000E94B802892B51F480916C0592E0811119
:102CE00091E080917505892B80937505089508956D
:102CF00090E080E00895FB0101900020E9F7319712
:102D0000AF01461B570BDC01ED91FC910280F38172
:102D1000E02D09948F929F92AF92BF92EF92FF9213
:102D20000F931F93CF93DF93CDB7DEB7A1970FB665
:102D3000F894DEBF0FBECDBF7C01FA01CB0119A212
:102D4000223008F42AE08E010F5D1F4F822E912C55
:102D5000B12CA12CBF01A50194010E946D2FF90196
:102D6000CA016A300CF5605DD8016E938D01232B8A
:102D7000242B252B79F790E080E0109721F0BD01FE
:102D8000C7010E947B16A1960FB6F894DEBF0FBE56
:102D9000CDBFDF91CF911F910F91FF90EF90BF902A
:102DA000AF909F908F900895695CDECFCF92DF92B5
:102DB000EF92FF920F931F93CF93DF9377FF1DC086
:102DC0006A017B01EC016DE20E94C3038C01442780
:102DD0005527BA014C195D096E097F092AE0CE0119
:102DE0000E948A16800F911FDF91CF911F910F9142
:102DF000FF90EF90DF90CF9008952AE0DF91CF9180
:102E00001F910F91FF90EF90DF90CF900C948A1656
:102E1000AB01770F660B770B0C94D616EF92FF92EF
:102E20000F931F93CF937C018B01C42F80EC0E94E2
:102E3000730861E282E496E00E94C30361E282E4E7
:102E400096E00E94C303C7010E94CE15CC2379F0FF
:102E50006DE382E496E00E94C303B80182E496E049
:102E60000E9408176C2F82E496E00E94C3030E9420
:102E7000E9156CED75E080E090E00E948503A8956F
:102E8000CF911F910F91FF90EF90089561157105FB
:102E900011F00C947B1690E080E00895EF92FF9281
:102EA0000F931F93CF93DF93CDB7DEB7A0970FB6E5
:102EB000F894DEBF0FBECDBF60917F01709180019D
:102EC000809181019091820120E03AEC4AE95BE334
:102ED0000E946D2F122F032F20E432E44FE050E0C8
:102EE0000E946D2FF22EE32E28EE33E040E050E0FA
:102EF0000E946D2F7F936F933F932F93EF92FF92DA
:102F00000F931F9383E192E09F938F938E010F5F46
:102F10001F4F1F930F930E94B633B8018CE895E0C2
:102F20000E94461766E272E0C8010E94A033B80111
:102F30008CE895E00E9446176EE272E0C8010E949C
:102F4000A033B8018CE895E00E9446176091940187
:102F500070E06F5F7F4F8CE895E00E94081763E395
:102F600072E0C8010E94A033B8018CE895E00E948D
:102F700046170FB6F894DEBF0FBECDBFA0960FB6B2
:102F8000F894DEBF0FBECDBFDF91CF911F910F919F
:102F9000FF90EF900895CF92DF92EF92FF920F9300
:102FA0001F93CF93DF93CDB7DEB7A0970FB6F894FA
:102FB000DEBF0FBECDBF8CE895E00E942804892BB0
:102FC00009F494C00E94B703665F7F4F8F4F9F4FF5
:102FD00060933F05709340058093410590934205AF
:102FE0008CE895E00E940604E0913D0491E09E0F7C
:102FF00090933D04F0E0E35EFB4F80838B3309F058
:10300000BFC1E0913D04F0E0E35EFB4F10821092FF
:103010003D0480914705811105C081E080934705FB
:1030200010926D0180911D04863409F08BC080914F
:103030001E04813409F064C180911F048B3309F0B0
:1030400064C080914705882309F44AC060917F01DC
:1030500070918001809181019091820120E03AEC91
:103060004AE95BE30E946D2F122F032F20E432E424
:103070004FE050E00E946D2F6B017C013F932F9336
:103080000F931F938CE392E09F938F938E010F5FBA
:103090001F4F1F930F930E94B633B8018CE895E041
:1030A0000E944617C701B60128EE33E040E050E029
:1030B0000E946D2F7F936F933F932F9387E492E04D
:1030C0009F938F931F930F930E94B633B8018CE8A0
:1030D00095E00E9446170FB6F894DEBF0FBECDBF35
:1030E0006AE070E080E090E00E948503A0960FB651
:1030F000F894DEBF0FBECDBFDF91CF911F910F912E
:10310000FF90EF90DF90CF90089580912A048B3349
:1031100099F54BE050E06FE174E0CE0101960E941A
:10312000A7331C86CE0101960E94CC2E60937F01AE
:1031300070938001809381019093820181E080935C
:103140008F01CECF8934D9F480911E04863461F486
:1031500080911F048B3381F480914705882309F403
:10316000BFCF0E944E17BCCF843431F480911F042E
:1031700061E572E08B33F9F06DE872E01CC08035D8
:1031800069F480911E048335B9F780911F0468E5C6
:1031900072E08B3381F0813379F7A2CF813499F4D7
:1031A00080911E04893409F079C080911F048B330B
:1031B00039F46DE572E08CE895E00E94461790CFF7
:1031C0008033D1F6F6CF8D34C1F580911E0484345E
:1031D00099F680911F048B33A9F462E672E08CE8C3
:1031E00095E00E9446176091940170E06F5F7F4FF9
:1031F0008CE895E00E9408176BE38CE895E00E944C
:10320000C3036ECF909120049B3309F0B5CF815357
:10321000809394019091650580919401092F01702C
:1032200010E0F801E557FE4F808381E080938F0125
:10323000109241061092400653CF8235C1F480911E
:103240001E04883509F044C080911F048B3309F0B7
:1032500093CF80E00E94E2081092770510927805E3
:103260001092790510927A0565E672E0A4CF843554
:1032700001F580911E04883509F07ECF80911F04EE
:103280008B3321F481E00E94E2082ACF8033D1F30E
:103290008133C1F3823309F06FCFF4CF873409F063
:1032A0006BCF80911F046AE672E0803309F064CF2F
:1032B00082CF8835D9F580911E04843509F05CCF22
:1032C00080911F046FE672E0813309F055CF73CF10
:1032D000843541F480911F0464E772E0813309F082
:1032E0004BCF69CF8334B9F480911F048B3309F03D
:1032F00043CF109269051092680569E772E05BCFD1
:103300008C3409F039CF80911F046DE772E080336F
:1033100009F032CF50CF833509F02ECF80911F04B2
:1033200062E872E08B3309F027CF45CF863509F08C
:1033300023CF80911E04883509F01ECF80911F0491
:103340008B3309F419CF282F082E000C330B3F9331
:103350008F9387E892E09F938F938E010F5F1F4FAB
:103360001F930F930E94B633B8018CE895E00E943A
:1033700046170F900F900F900F900F900F90B0CEB8
:1033800080913D04803208F4B1CE60E972E08CE8AF
:1033900095E00E94461710923D04A8CE0E94340486
:1033A00081110C94CB170895CF93DF93282FCB0175
:1033B00060911B0470911C04C42FD0E0233079F07D
:1033C000243089F040911B0450911C04C40FD51F78
:1033D000D0931C04C0931B04DF91CF910895AE01DC
:1033E0000E94112FEFCFAE010E94212FEBCF0F9340
:1033F0001F93CF93DF93EB01823008F058C0088110
:1034000019812A813B8190918B05492F990F550B8A
:10341000660B770B400F511F621F731F77FF1FC092
:10342000188219821A821B82182F10928B050E9413
:103430007E0850E040E060E0812F0E94ED15488159
:1034400059816A817B8182E496E00E94D6160E94AF
:10345000E915DF91CF911F910F910C94E915088127
:1034600019812A813B8190918B05492F990F550B2A
:10347000660B770B400F511F621F731F1416150642
:10348000160617066CF2088119812A813B819091FA
:103490008B05492F990F550B660B770B400F511F6A
:1034A000621F731F488359836A837B83BDCF44E0C7
:1034B000DF91CF911F910F910C94D4194F925F928D
:1034C0006F927F928F929F92AF92BF92CF92DF9234
:1034D000EF92FF920F931F93CF93DF93CDB7DEB799
:1034E000FB01823008F067C0908140908B05042C6E
:1034F000000C550866087708490E511C611C711CA8
:103500004C145D046E047F047CF5C0826901F42EC6
:103510005F01E82E10928B050E947E08A6016F2D98
:103520008E2D0E94ED15F50101151105B1F54081B3
:1035300050E070E060E02AE082E496E00E948A16A3
:103540000E94E915DF91CF911F910F91FF90EF90AD
:10355000DF90CF90BF90AF909F908F907F906F90B3
:103560005F904F900C94E9159081C0908B050C2CC6
:10357000000CDD08EE08FF08C90ED11CE11CF11C8F
:103580008C149D04AE04BF0414F48082BFCF50811C
:1035900090918B05950F9083B9CF808190E0880F33
:1035A000991F080F191FF8016081718182E496E06C
:1035B0000E944617C5CF41E0DF91CF911F910F9137
:1035C000FF90EF90DF90CF90BF90AF909F908F9043
:1035D0007F906F905F904F900C94D4198F929F9230
:1035E000AF92BF92CF92DF92EF92FF920F931F9311
:1035F000CF93DF93C82FD62F00E511E08DEF8C0F0E
:10360000823088F410931C0400931B04BB24B394F1
:10361000BD1648F46B2D85E00E94EE1AB394F8CFE6
:10362000DEE2C2E0EBCFDF3F61F4D1E06D2F8C2F03
:103630000E94EE1ADF5FD433C9F7C23009F46FC3BA
:10364000AEC0D43308F065C3ED2FF0E0E65DF44E74
:103650000C94AE2F811E5E1BBD1BDD1BED1BFD1BE5
:103660000D1C1C1C821C911CA11CB11CC11C891EA0
:10367000891E891E891E891E891ED11CE01C391DC8
:10368000491D581D671D761D851D891E891E891EB1
:10369000891E891E891E891E891E891E951DAA1DC7
:1036A000BB1D2F1E891E891E891E891E891E891E0B
:1036B0003F1E4E1E541E571E651E731EC23008F05C
:1036C00055C080917D0140918B05082E000C990B0F
:1036D000AA0BBB0B042E000C550B660B770B840F4B
:1036E000951FA61FB71F8F3F9F4FAF4FBF4F04F5CA
:1036F0008FEF80937D0110928B050E947E0845EB31
:1037000051E061E18C2F0E94ED1580917D0187FDD4
:1037100005C06BE282E496E00E94C30360917D01E4
:10372000062E000C770B82E496E00E940817B8C0C2
:1037300080917D0140918B05082E000C990BAA0BFE
:10374000BB0B042E000C550B660B770B840F951FDB
:10375000A61FB71F4197A105B10514F080E1C9CF9D
:1037600080917D0190918B05890FC3CF41E06DE77A
:1037700071E08C2F0E94D41912C064E0862E912C27
:10378000A12CB12CC12CD12C76010EE611E020EB3E
:1037900031E042E164E971E08C2F0E945E1A8D2FC6
:1037A000DF91CF911F910F91FF90EF90DF90CF901D
:1037B000BF90AF909F908F90089557E0852E912CE9
:1037C000A12CB12CC12CD12C760108E511E026EA00
:1037D00031E043E166E675E0DFCF4AE0842E912CCC
:1037E000A12CB12CC12CD12C760102E411E021EAEC
:1037F00031E044E16EE771E0CFCF39E0832E912CC8
:10380000A12CB12CC12CD12C76010EE211E027E9BC
:1038100031E045E160E971E0BFCF812C912C54018A
:103820008394C12CD12C76010AE211E02EE831E01C
:1038300046E165E675E0B0CFC23008F05FC0809128
:1038400068059091690540918B05092E000CAA0B23
:10385000BB0B042E000C550B660B770B840F951FCA
:10386000A61FB71FB7FF21C0109269051092680507
:1038700010928B050E947E084AE851E067E18C2F88
:103880000E94ED15E0916805F0916905EE0FFF1FAC
:10389000EA5DFE4F6081718182E496E00E944617E6
:1038A0000E94E9150E94E9157ACF809168059091F0
:1038B000690540918B05092E000CAA0BBB0B042E49
:1038C000000C550B660B770B840F951FA61FB71FB7
:1038D0000297A105B1053CF081E090E09093690565
:1038E00080936805C5CF8091680590916905209106
:1038F0008B05820F911D27FD9A95F0CF42E068E677
:1039000075E037CF812C912C54018394C12CD12C9C
:10391000760106E211E026E831E048E165E271E077
:103920003BCF08E0802E912CA12CB12CC12CD12CA6
:10393000760110E000E023E831E049E167E675E058
:103940002BCF17E0812E912CA12CB12CC12CD12C86
:10395000760105E111E02FE731E04AE162E675E02A
:103960001BCFB0E18B2E912CA12CB12CC12CD12CD2
:10397000760110E000E02AE731E04BE16CE671E00F
:103980000BCFA4E08A2E912CA12CB12CC12CD12CD0
:1039900076010BE011E022E731E04CE16DE671E0E9
:1039A000FBCE812C912C54018394C12CD12C760117
:1039B00006E211E029E631E044E26AE174E0ECCE8F
:1039C000C23008F052C080917A0190917B01409101
:1039D0008B05092E000CAA0BBB0B042E000C550BFB
:1039E000660B770B840F951FA61FB71F18161906B5
:1039F0001A061B06ACF081E090E090937B01809367
:103A00007A0110928B050E947E084DE551E065E237
:103A10008C2F0E94ED1560917A0170917B0183CE0D
:103A200080917A0190917B0140918B05092E000CC9
:103A3000AA0BBB0B042E000C550B660B770B840FE7
:103A4000951FA61FB71FCD97A105B1051CF08CE3EC
:103A500090E0D3CF80917A0190917B0120918B05EA
:103A6000820F911D27FD9A95C8CF42E06AE771E069
:103A700080CEE2E08E2E912CA12CB12CC12CD12C29
:103A8000760105E011E022E531E046E263E971E00C
:103A900083CE812C912C54018394C12CD12C76019E
:103AA00006E211E027E431E047E26CE675E074CE0F
:103AB000812C912C54018394C12CD12C760106E2E7
:103AC00011E02EE331E048E269E174E065CE812C3B
:103AD000912C54018394C12CD12C760106E211E083
:103AE0002AE331E041E361E875E056CE812C912C68
:103AF00054018A94C12CD12C760110E000E02FE211
:103B000031E042E36BE671E047CE38E0832E912C42
:103B1000A12CB12CC12CD12C760110E000E026E2C2
:103B200031E043E36AE671E037CE80906801882D8A
:103B30008150990B4C01092C000CAA08BB08C12C20
:103B4000D12C760110E000E02AE131E041E86EE39B
:103B500075E022CEC0903E05D12CF12CE12C812CB9
:103B6000912C54018A9410E000E02EE031E042E80C
:103B700068E671E011CEC23008F06DC080913C065D
:103B800090913D06A0913E06B0913F0640918B0575
:103B9000042E000C550B660B770B840F951FA61F88
:103BA000B71F80389F49A54DB10524F580E89FE9EE
:103BB000A5EDB0E080933C0690933D06A0933E06B1
:103BC000B0933F0610928B050E947E0845E051E0BD
:103BD00063E88C2F0E94ED1540913C0650913D0604
:103BE00060913E0670913F062AE082E496E00E94D2
:103BF0008A1656CE80913C0690913D06A0913E06D5
:103C0000B0913F0640918B05042E000C550B660BBE
:103C1000770B840F951FA61FB71F81309F43AB4AB8
:103C2000B1402CF080E09FE3ABEAB1E0C3CF8091DC
:103C30003C0690913D06A0913E06B0913F06409112
:103C40008B05042E000C550B660B770B840F951F0C
:103C5000A61FB71FAFCF44E06CE376E08ACD94EBAC
:103C6000892E912CA12CB12CC12CD12C760110E0E5
:103C700000E02CEF30E044E868E771E08DCD812C66
:103C8000912C54018394C12CD12C760106E211E0D1
:103C900022EF30E041EA69E671E07ECD63E871E051
:103CA0008C2F0E94F7197BCD67E871E0F9CF812C4A
:103CB000912C5401C12CD12C760110E000E030E0B1
:103CC00020E040E06BE871E067CD812C912C54013D
:103CD000C12CD12C760110E000E030E020E040E083
:103CE0006CE871E059CD812C912C5401C12CD12C60
:103CF000760110E000E030E020E040E068E475E0AC
:103D00004BCD10927B050E94481681E080938F0175
:103D100046CDC23009F043CDDE3209F440CD80916A
:103D20008B052FEF3FEF181614F421E030E08D2FB4
:103D300090E0280F391F2F32310514F420918B05A4
:103D400020918B05121674F02FEF3FEF820F931F17
:103D50008F970CF065CC80918B05181634F08FEF9F
:103D6000D80F5FCC21E030E0F1CF81E0F9CF1F9296
:103D70000F920FB60F9211242F933F938F939F931F
:103D8000AF93BF938091830590918405A0918505A1
:103D9000B09186053091820523E0230F2D3758F529
:103DA0000196A11DB11D20938205809383059093F8
:103DB0008405A0938505B093860580918705909131
:103DC0008805A0918905B0918A050196A11DB11DB4
:103DD0008093870590938805A0938905B0938A0501
:103DE000BF91AF919F918F913F912F910F900FBEF7
:103DF0000F901F90189526E8230F0296A11DB11D64
:103E0000D2CF1F920F920FB60F9211242F933F9390
:103E10004F935F936F937F938F939F93AF93BF93D2
:103E2000EF93FF938CE895E00E943E04FF91EF91A1
:103E3000BF91AF919F918F917F916F915F914F91C2
:103E40003F912F910F900FBE0F901F9018951F92CA
:103E50000F920FB60F9211242F938F939F93EF938E
:103E6000FF93E0919C05F0919D058081E091A20572
:103E7000F091A30582FD1BC090818091A5058F5F05
:103E80008F732091A605821741F0E091A505F0E01F
:103E9000E457FA4F958F8093A505FF91EF919F917D
:103EA0008F912F910F900FBE0F901F9018958081CA
:103EB000F4CF1F920F920FB60F9211242F933F93BE
:103EC0004F935F936F937F938F939F93AF93BF9322
:103ED000EF93FF93E0914405F09145050995FF911B
:103EE000EF91BF91AF919F918F917F916F915F9172
:103EF0004F913F912F910F900FBE0F901F901895EB
:103F00001F920F920FB60F9211240F931F932F93AE
:103F10003F934F935F936F937F938F939F93AF9351
:103F2000BF93CF93DF93EF93FF93C091430580E15D
:103F3000C89FE001112486E00E94B8028C0187E04E
:103F40000E94B802000F111F8C2B802B8093430519
:103F50008332B9F08233D9F0FF91EF91DF91CF91A5
:103F6000BF91AF919F918F917F916F915F914F9191
:103F70003F912F911F910F910F900FBE0F901F90A7
:103F8000189580918B058F5F80938B05E5CF80918D
:103F90008B058150F9CFECE8F5E01382128288EEB0
:103FA00093E0A0E0B0E084839583A683B78389EF94
:103FB00091E09183808385EC90E09587848784EC01
:103FC00090E09787868780EC90E0918B808B81ECE6
:103FD00090E0938B828B82EC90E0958B848B86ECC7
:103FE00090E0978B868B118E128E138E148EE2E4E6
:103FF000F6E0138212828BE092E09183808388B195
:104000008F7C88B93D9800000000000000003C98BB
:104010003C9A80E498E7ADE7B1E080933C0690934A
:104020003D06A0933E06B0933F060895CF93DF93DD
:10403000CDB7DEB768970FB6F894DEBF0FBECDBF21
:10404000789484B5826084BD84B5816084BD85B573
:10405000826085BD85B5816085BD80916E0081607F
:1040600080936E0010928100809181008260809325
:104070008100809181008160809381008091800027
:104080008160809380008091B10084608093B10052
:104090008091B00081608093B00080917A0084604C
:1040A00080937A0080917A00826080937A00809178
:1040B0007A00816080937A0080917A008068809392
:1040C0007A001092C10060E08AE00E94E1020E9442
:1040D0000E0814BE88E198E20FB6F894A895809374
:1040E00060000FBE9093600080E480937C0010928B
:1040F000680010926B0010926C0010926D0062E0EC
:1041000087E00E940F0362E086E00E940F03809127
:104110006D00806C80936D00809168008460809356
:10412000680086E00E94B8027C0187E00E94B80225
:10413000EE0CFF1CE82AE0924305789460E08BE0E7
:104140000E94E10261E088E00E94E10260E08AE012
:104150000E94E10260E089E00E94E10261E089E002
:104160000E940F0361E08BE00E940F0361E088E092
:104170000E940F0361E08AE00E940F0360E081E18A
:104180000E940F0362E08DE00E940F0360E08CE06C
:104190000E940F0360E08EE00E94E10260E08FE089
:1041A0000E94E10260E08EE00E940F0360E08FE079
:1041B0000E940F0364E670E080E090E00E948503B7
:1041C0008AB18F618AB93C9A8BE39DE00197F1F740
:1041D0003C9A5C9883E30E9473088BE4E82E86E4A3
:1041E000F82EC7010197F1F783E30E947308C70116
:1041F0000197F1F783E30E94730883E592E001974A
:10420000F1F782E30E94730888E20E9473088CE051
:104210000E94730881E00E94730863E070E080E010
:1042200090E00E94850386E00E94730810924A0580
:10423000109249055E0129E0A20EB11C809149054A
:1042400090914A050897A9F16091490570914A0536
:1042500013E0660F771F1A95E1F7625F7D4F48E024
:1042600050E0CE0101960E94F32E80914905909175
:104270004A058F5F38E0839FC001112488738064F2
:104280000E947308CE0101967C01F70161917F01C4
:1042900082E496E00E94AA15EA14FB04B1F780912B
:1042A000490590914A05019690934A0580934905E6
:1042B000C5CF0E94481687E80E9473088BE092E001
:1042C0000E94CE1585E092E00E94CE150E94E9156D
:1042D0006FEF83E00E94460560E08AE00E94E10201
:1042E00060E088E00E94E10264E670E080E090E037
:1042F0000E9485038FE00E944B03BC01990F880B3D
:10430000990B0E94F1319B01AC010E94D63020E054
:1043100030E040EA50E40E94FE3220E030E040E825
:104320005AE30E94FE324B015C0161E088E00E948A
:10433000E1022AE939E949E950E4C501B4010E94E2
:10434000A132181654F426E636E646EA50E4C501D2
:10435000B4010E94423187FD09C0C501B4010E9429
:10436000B93146E580E092E00E940E1783E10E9499
:104370004B03BC01990F880B990B0E94F13120E08F
:1043800030E040EA50E40E94FE3220E030E040E8B5
:104390005AE30E94FE324B015C012DEC3CEC4CE4F4
:1043A00050E40E94A132181654F423E333E343E7A8
:1043B00050E4C501B4010E94423187FD09C0C50126
:1043C000B4010E94B93146E58BEF91E00E940E17CF
:1043D00086E00E944B0380917C00886080937C0083
:1043E00061E070E080E090E00E94850380917A00B7
:1043F000806480937A0080917A0086FDFCCF609182
:1044000078007091790090E080E00E94EF319B018C
:10441000AC016AE979EA8CE894E40E9447314B01E7
:104420005C0123E333E343E950E40E94A132181610
:1044300054F426E636E646EA50E4C501B4010E948B
:10444000423187FD09C0C501B4010E94B93146E57A
:1044500085EF91E00E940E173A986AE070E080E0E4
:1044600090E00E94850380E10E944B03BC01990FFC
:10447000880B990B0E94F13120E030E040EA50E4D3
:104480000E94FE3220E030E040E85AE30E94FE3213
:104490004B015C0126E636E646EE5FE30E94A13260
:1044A000181654F42DEC3CEC4CE450E4C501B40176
:1044B0000E94423187FD09C0C501B4010E94B93193
:1044C00046E58FEE91E00E940E178EE00E944B03AE
:1044D000BC01990F880B990B0E94F13120E030E06C
:1044E00040EA50E40E94FE3220E030E040E85AE327
:1044F0000E94FE324B015C0126E636E646EE5FE3A3
:104500000E94A132181654F42DEC3CEC4CE450E41B
:10451000C501B4010E94423187FD09C0C501B40143
:104520000E94B93146E589EE91E00E940E178FE0B6
:104530000E944B03BC01990F880B990B0E94F1312B
:1045400020E030E040EA50E40E94FE3220E030E01B
:1045500040E85AE30E94FE324B015C0126E636E653
:1045600046EE5FE30E94A132181654F42DEC3CECA9
:104570004CE450E4C501B4010E94423187FD09C0FA
:10458000C501B4010E94B93146E583EE91E00E9475
:104590000E17A8950E94600310924A0510924905D3
:1045A0008091490590914A05883E934061F00E94B0
:1045B0000A058091490590914A05019690934A0514
:1045C00080934905EDCF0E94600360917F01709157
:1045D000800180918101909182012AE530E050E0D4
:1045E00040E00E944406A89510924A0510924905A1
:1045F000B12CA12C8091490590914A05883E9340A9
:1046000009F462C08091490590914A050E94160202
:104610000E940A05B4E0EB2EF12C0E94030580EC09
:104620000E948E018AE18E0D0E948E010E94F70485
:104630000E94030581EC0E948E0180E80E943008F0
:10464000982E80E40E943008982A80E20E94300868
:10465000982A80E10E943008982A88E00E94300859
:10466000982A84E00E943008982A82E00E9430084C
:10467000982A81E00E943008982A3C9800000000A7
:10468000000000003D9A00000000000000000E94B1
:10469000F704F701E75DF94F8385891519F03FEFBE
:1046A000A31AB30A8FEFE81AF80A98E0E916F104A2
:1046B00009F0B3CF8091490590914A0501969093F6
:1046C0004A058093490596CFA895A114B10431F00D
:1046D00040E2B5018BED91E00E940E1784E08093DB
:1046E0006A01E0917C0124E0E29FF0011124EB5685
:1046F000FE4F80819181A281B38180935B0590936D
:104700005C05A0935D05B0935E0563E383E00E94C2
:10471000EE1A80914805883509F42AC188E580930E
:1047200048056FEF84E00E94EE1A80EC0E94730847
:104730008AEC91E00E94CE1564EF71E080E090E099
:104740000E948503A8951092410610924006FF240E
:10475000F394F0928F0180917E0180937901109201
:104760008105109267051092690510926805809185
:104770006505082F017010E0000F111F000F111FB9
:10478000F801ED57FE4F80819181A281B381809322
:104790007F0190938001A0938101B0938201809169
:1047A000650580FBCC24C0F8D12CF601E557FE4FFF
:1047B0008081809394010E9481080E944816F092A3
:1047C00064051092460585EC9AE090934505809328
:1047D000440524E63EED45E050E061E082E00E94C1
:1047E0006A0A80917C00809361058091620561E096
:1047F000813009F460E029E937E741E050E080E0EA
:104800000E946A0A80917C0080935F058091620516
:1048100061E0813009F460E029E937E741E050E0E8
:1048200081E00E946A0A80917C008093600510926A
:1048300080001092810080918000826A80938000C5
:1048400080918100896180938100109287008FEFB1
:1048500080938600109289001092880010928B003D
:1048600010928A008091B6008F7D8093B6001092DE
:10487000B0001092B1001092B2008091B00082603E
:104880008093B0008091B10084608093B1008091EA
:10489000700082608093700084E08093B300809108
:1048A00080008F7D8093800060E08AE00E94E102BA
:1048B000E0919C05F0919D0582E08083E091980550
:1048C000F09199051082E0919A05F0919B0580E4A2
:1048D00080831092A405E091A005F091A10586E0E7
:1048E0008083E0919E05F0919F05808180618083A7
:1048F000E0919E05F0919F05808188608083E09122
:104900009E05F0919F05808180688083E0919E05DF
:10491000F0919F0580818F7D808380914705811173
:104920000E944E171092760580E180937505609184
:104930007A0170917B018CED95E00E94592FCB019B
:10494000770FAA0BBB0B8093710590937205A09310
:104950007305B09374058DE00E94B802892B99F419
:1049600040E070E060E08CEB91E00E940E17F3CF26
:1049700081E10E94B802892B09F0D0CE6FEF83E06D
:104980000E94EE1AE0CE80919401823049F4809129
:104990009301823029F08CE00E94B802892B01F348
:1049A000F0E84F2EF6E95F2EF8E96F2E712C80911A
:1049B0008105882391F180919401882321F08091D1
:1049C0009401813051F580918005811178C18091E9
:1049D0007F0591E0980F90937F05803109F036C1F3
:1049E00080917D0590917E05E4E096958795EA9506
:1049F000E1F7805E91400E947F1310927F05109234
:104A00007E0510927D0580917C05882331F081E040
:104A1000809380058FEF0E94E20880917B058111D1
:104A200005C18091770590917805A0917905B091A5
:104A30007A05892B8A2B8B2B09F0F8C08091800591
:104A40008111F4C040915305509154056091550572
:104A50007091560580914F0590915005A091510598
:104A6000B091520584179507A607B70708F436C119
:104A7000C0904F05D0905005E0905105F090520540
:104A8000C0924F05D0925005E0925105F092520528
:104A900080916D01882309F4C9C080914D059091E2
:104AA0004E05019690934E0580934D059770892B86
:104AB00009F0BCC080916C0161E070E002C0660F3B
:104AC000771F8A95E2F7072E000C880B990B0E943E
:104AD000F1314B015C01C701B6010E94EF319B012E
:104AE000AC01C501B4010E94FE3221ED35E443EE74
:104AF0005FE40E9447319B01AC010E94FE3220E03E
:104B000030E048E452E40E9447310E94A63220E09F
:104B100030E040E251E40E94FE3220E030E040EF1D
:104B200051E40E94D6300E94B9316B0170934C055C
:104B300060934B050E947E0880916D01813061F485
:104B400089E80E947308B60182E496E00E94081783
:104B50008EE492E00E94CE1580916D01823019F5AD
:104B600080914B0590914C05813C3FEF93070CF0F1
:104B7000BEC081589F4F66E070E00E94592F162FEB
:104B80008EE80E9473081A3028F463E582E496E008
:104B90000E94C303412F50E070E060E02AE082E40D
:104BA00096E00E948A1680916D01833049F58091CC
:104BB0004B0590914C05813CEFEF9E070CF0A0C097
:104BC00081589F4F66E070E00E94592FFE01319698
:104BD00094EF960F8F0182E016162CF481E0860F79
:104BE00065300CF085E0819363506913F4CF1D822A
:104BF0008CE80E947308B80182E496E00E94461790
:104C00000E943F0A80914F0590915005A091510557
:104C1000B0915205B695A7959795879580934F05C6
:104C200090935005A0935105B093520510919401B3
:104C3000123029F480919301823009F06AC080918A
:104C40009401823009F4BBC11DE0BFC1F89483E830
:104C500080937A0080916B01803220F060E088E0E0
:104C60000E94E10290917C0080917A0084FFFCCF49
:104C70008091610580937C0080917A0080648093AC
:104C80007A0080917A0084FFFCCF90937C00809121
:104C90006B01803220F061E088E00E94E102209107
:104CA000780030917900789480917D0590917E050F
:104CB000820F931F90937E0580937D05A4CE8091F3
:104CC0007C058111AACE0E94E2081092800560E264
:104CD00070E080E090E00E9485039FCEC090530575
:104CE000D0905405E0905505F0905605C9CE875BED
:104CF0001AE0612F0E94392F819F102D112440CF7F
:104D0000875B2AE0622F0E94392F829F602D112439
:104D10005DCF80917605823009F4DDC008F089C04E
:104D2000882309F4AAC0813009F4BCC0C09077057B
:104D3000D0907805E0907905F0907A05C114D104FF
:104D4000E104F10451F00E94B703C616D706E80645
:104D5000F90618F480E00E94E20881E10E94B8029E
:104D6000892B09F43CC480916B0582FD05C08091BC
:104D70006B05857009F454C180916B05807F90911B
:104D80008B05992309F4CFC19CE0892B80936B0597
:104D900080916B05823209F433C308F0ECC186318F
:104DA00008F0C3C1843108F08FC2813109F490C288
:104DB00080917B05811107C09091630580917B05EF
:104DC000981709F442C510918B0580917B058130BD
:104DD00009F00CC4112309F40BC490918B05809148
:104DE0006A05890F80936A0580916A058E322CF4DA
:104DF00080916A0518160CF0F5C380916A058E3211
:104E00000CF0F2C380916A0580936A0560916A058F
:104E100082E00E94EE1A80936A0510928B058091C1
:104E20007B0560E0811160916A0581E00E94EE1AC5
:104E3000E5C3843009F48AC008F466C0853009F0FF
:104E400075CF0E9458160E94B703C0906D05D09090
:104E50006E05E0906F05F0907005C616D706E8065F
:104E6000F90608F063CF8091750582FFA2C08A7FA2
:104E7000809375051093760559CF8CE00E94B80297
:104E8000892B31F40E94581681E0809376054ECF2D
:104E90008DE00E94B802892BA9F38091750583707B
:104EA00089F744CF8091750580FFE4CF84608093BB
:104EB00075058091710590917205A0917305B0916F
:104EC000740580936D0590936E05A0936F05B09364
:104ED000700583E0DACF8091750581FF6DC0209168
:104EE0007105309172054091730550917405A3E0EE
:104EF000B0E00E94D22F60936D0570936E05809391
:104F00006F0590937005E5CF81E00E94E2080E9452
:104F1000B70300916D0510916E0520916F053091DA
:104F20007005DC01CB01800F911FA21FB31F80937E
:104F30006D0590936E05A0936F05B09370058091F9
:104F400075058C7F8093750584E09FCF0E94B70321
:104F500000916D0510916E0520916F0530917005DF
:104F60000617170728073907E8F480E00E94E208CF
:104F70000E94B7030091710510917205209173058D
:104F800030917405DC01CB01800F911FA21FB31F6C
:104F900080936D0590936E05A0936F05B093700597
:104FA00085E073CF8091750584FFC0CE0E945816AE
:104FB000BDCE8D7F8093750510927605B7CE80911A
:104FC0006C051CE0882309F43FCE80918005811197
:104FD000ADCE812F0E94B802892B09F0A7CE81E0C7
:104FE0000E94E208A895809194018230A1F46AE0C1
:104FF00070E080E090E00E94850381E10E94B802A9
:10500000892B29F4812F0E94B802892B59F380E063
:105010000E94E2088BCE64E670E080E090E0EBCF87
:10502000F89480917A0084FFFCCF00917A0010916F
:105030007C0080917A00877F80937A0080917A004B
:10504000876080937A0080E480937C0061E070E068
:1050500080E090E00E94850381E10E944B037C0187
:1050600000937A0010937C00789481E080936B0524
:105070000E94B7034B015C0181E10E94B802892BB9
:1050800071F00E94B703681979098A099B096D328A
:1050900071408105910578F184E080936B056AE0A9
:1050A00070E080E090E00E94850380916B05843081
:1050B00099F00E94B703681979098A099B09643F2E
:1050C00071408105910540F481E10E94B802892B6D
:1050D000A1F032E030936B0581E10E94B802892B88
:1050E00089F080918B05882321F080916B058430B5
:1050F00031F0A895F1CFA895BFCFA895D6CF8CE079
:1051000080936B0590E18CE5E81683E0F80630F0BB
:1051100097EDE91693E0F90620F490E280916B0593
:1051200034CE90E3FBCF95E030CE8C3109F441C210
:10513000813209F03DCE80917B0581114BC12091D8
:1051400094018091680590916905892B09F4DFC06D
:1051500010926905109268052091940181E090E019
:10516000223011F090E080E08F569E4FFC0180814C
:10517000809390012BC1823309F41FC270F48432F2
:1051800009F49BC1813309F013CE80917B05811115
:1051900002C281E00E94480A0BCE843309F418C28F
:1051A0008C3309F005CE81E10E94B802892B09F405
:1051B0000DC1A89580918B058823A9F361E080E05B
:1051C0000E94EE1A80917D0187FF04C28AE08093DD
:1051D0007D0161E084E00E94EE1A80EC0E94730879
:1051E00083E592E00E94CE150E94E91587EF84BF07
:1051F0000FB6F894A8958091600088618093600054
:10520000109260000FBE809170008D7F80937000BF
:1052100061E070E080E090E00E94850310928800D9
:1052200010928A0080917A00877F80937A00809123
:105230007A00876080937A0080E480937C000E94EB
:105240000E086CED75E080E090E00E9485031092FE
:10525000680010926B0010926C0010926D0010921A
:105260006E0010926F00109270001092600080919A
:105270006C00886080936C008091680082608093ED
:1052800068008FEF8093640088E00E9473085B9849
:1052900083B7817F846083BF83B7816083BF789445
:1052A00085B7806685BF8F7D85BF889583B78E7FE4
:1052B00083BF88E198E00FB6F894A89580936000CA
:1052C0000FBE90936000FFCFE2E0E0937B0570CDCE
:1052D00080917B05811107C080916A05811103C00F
:1052E00081E080936A0580917B05813071F081E0D7
:1052F00090917B05923030F060916A0584E00E94C5
:10530000EE1A80E080937B0553CD82E0F1CF80914F
:1053100094018F5F8093940180919401833010F009
:105320001092940180919401823011F410926705DB
:1053300081E090E0223011F090E080E02091900137
:10534000FC01EF56FE4F20834091940121E030E0B4
:10535000423011F030E020E02F563E4FF90120811D
:10536000209390012091660583579E4FFC01208376
:105370002091940181E090E0223011F090E080E0F3
:1053800083579E4FFC01808180936605909165054F
:1053900080919401917099871A86E985FA85E5577D
:1053A000FE4F80838091650562E380FF61E384E0C6
:1053B0000E94EE1A62E084E00E94EE1A63E084E04C
:1053C0000E94EE1A109241061092400681E08093EE
:1053D0008F01EECC80917B05813011F410927B051A
:1053E00080917B05823008F4E3CC81E080937B05DB
:1053F00080938F0160916A0584E00E94EE1AD8CCF8
:10540000809166058F5F8093660581E080936405D7
:1054100080919401823039F480916605883018F0CB
:1054200084E08093660580919401823039F4809104
:105430006605843019F486E0809390018091940190
:10544000823079F480916605853021F0809166057F
:10545000863039F480919001873018F487E080938A
:10546000900180919401823059F4809166058730D3
:1054700039F480919001883018F488E0809390018D
:1054800080919401823031F080916605843010F073
:105490001092660510928B0563E080E00E94EE1A80
:1054A00063E084E00E94EE1AA8956CED75E080E060
:1054B00090E00E948503A89589CF209168053091DE
:1054C000690581E090E0232B11F090E080E090935B
:1054D0006905809368058091680590916905892B1D
:1054E00009F052C02091940181E090E0223011F047
:1054F00090E080E08F569E4FFC0180818093900168
:105500008091680590916905892B09F05FCF909192
:10551000650581E0911180E08093650580916505C6
:1055200081708B871C86EB85FC85EE0FFF1FEE0FCD
:10553000FF1FED57FE4F80819181A281B38180933F
:105540007F0190938001A0938101B09382018091AB
:10555000650581708D871E86ED85FE85E557FE4FBA
:1055600080818093940180919401823079F085E06C
:105570008093900180919401823051F484E0809373
:1055800066051092670522CF88E0B8CF86E0F0CF9D
:10559000109266051BCF80917B0580917B05823040
:1055A00051F481E080938F0160916A0584E00E944C
:1055B000EE1A81E0A7CE82E0A5CE80917E018F5FBA
:1055C0008A3020F480937E0185E0D2CD81E0FACF4D
:1055D0008FEFE0CD61E084E00E94EE1AE4CD1092FE
:1055E0006B05E6CB81E010CC8EE20ECC111117CC0E
:1055F0009091630580917B05981311CC80917B0578
:105600008093630580917B05823009F01EC11123D0
:1056100009F41BC180EC0E9473088EE00E9473089D
:1056200080916A05823069F59091650580919401B9
:1056300091709F87188AEF85F889E557FE4F808320
:105640008091650562E380FF61E384E00E94EE1AC9
:1056500081E080938F011092410610924006809164
:105660009401823009F4E0C285E08093900180913A
:105670009401823009F0DAC284E0809366051092CA
:10568000670580916A05843019F481E080938F0169
:1056900080916A058630C9F5909165059170998B66
:1056A0001A8AE989FA89EE0FFF1FEE0FFF1FED57E7
:1056B000FE4F408151816281738140937F015093FD
:1056C00080016093810170938201909165059170D2
:1056D0009B8B1C8AEB89FC89E557FE4F9081909348
:1056E000940190919401923009F085E080939001AB
:1056F00080919401823009F09CC284E08093660519
:105700001092670581E080938F0180916A05873050
:1057100069F48091680590916905892B09F48CC220
:1057200088E08093900181E080938F0180916A05E9
:105730008A30C9F5F894609162056095617029E935
:1057400037E741E050E080E00E946A0A80917C00E7
:1057500080935F05609162056095617029E937E784
:1057600041E050E081E00E946A0A80917C008093D1
:1057700060057894609162056695617081E06827A4
:1057800088E00E94E1026091620562FB662760F991
:105790008EE00E940F036091620562FB662760F94C
:1057A0008FE00E940F0380916A05863219F481E030
:1057B00080938F0180916A05843221F080916A057F
:1057C000853211F40E94810880916A058131A1F42B
:1057D00080917C01811132C28CEB92E0A0E0B0E0BC
:1057E00080935B0590935C05A0935D05B0935E0587
:1057F00062E184E00E94EE1A80916A05873219F412
:1058000081E080938F0180916A058431A1F46091D9
:105810007A0170917B018CED95E00E94592FCB01AC
:10582000770FAA0BBB0B8093710590937205A09321
:105830007305B093740580916A05853131F48091C8
:105840009301811100C21092750580917B05811131
:1058500052C080918B05882309F44DC0A0918B051F
:10586000E091900124E0E29FF0011124EF55FE4FFA
:105870002081318142815381809168059091690531
:10588000892B09F4EFC160916805709169050A2EB2
:10589000000CBB0BA29FC001A39F900DB29F900D67
:1058A0001124860F971F9093690580936805809156
:1058B0006805909169058031974244F480916805AC
:1058C00090916905813F984D0CF4C6C1809168059F
:1058D00090916905803197420CF0C1C180916805B3
:1058E00090916905909369058093680581E08093A4
:1058F0008F0110928B0580918F01882309F465C177
:1059000080917C05811161C18091800581115DC10B
:1059100010928F0180917E01909179019817A1F0EA
:1059200094E0899FF0011124E753FE4F408151819B
:105930006281738140937F01509380016093810164
:1059400070938201809379012091650580917F0198
:1059500090918001A0918101B091820121702D8BE5
:105960001E8AED89FE89EE0FFF1FEE0FFF1FED5718
:10597000FE4F80839183A283B3830E94B703685153
:105980007C4F8F4F9F4F60935705709358058093BE
:10599000590590935A0580917B058111B7C0C0903D
:1059A0007F01D0908001E0908101F090820180EC35
:1059B0000E947308809168059091690560E2892BC7
:1059C000D1F4409165053091650520917C0581E019
:1059D00090E0323011F090E080E030E082239323B9
:1059E00041704F8B188EEF89F88D8E2B9F2B67E0BF
:1059F000892B09F466E082E496E00E94C30380915B
:105A0000680590916905892B09F487C1C0906805E4
:105A1000D09069050D2C000CEE08FF0884E692E09A
:105A20000E94CE1580916805909169056DE297FFFF
:105A30006BE282E496E00E94C30338EE832E33E0EB
:105A4000932EA12CB12CC701B601A50194010E948F
:105A50008F2F1B018C0157FF07C050954095309543
:105A600021953F4F4F4F5F4FBA01A90182E496E065
:105A70000E94D616F8EE8F16F3E09F06A104B1043B
:105A800041F020E4821622E492062FE0A206B1043F
:105A900029F46CE282E496E00E94C303610178017C
:105AA000C501B4012AE030E040E050E00E948F2FB1
:105AB00049015A0131E083169104A104B10419F699
:105AC00060E282E496E00E94C303E0919401F0E07A
:105AD000EE0FFF1FE259FE4F6081718182E496E074
